{
  "contractName": "Group",
  "abi": [
    {
      "inputs": [
        {
          "internalType": "string",
          "name": "_name",
          "type": "string"
        }
      ],
      "name": "createGroup",
      "outputs": [],
      "stateMutability": "nonpayable",
      "type": "function"
    },
    {
      "inputs": [
        {
          "internalType": "string",
          "name": "_groupName",
          "type": "string"
        }
      ],
      "name": "readGroupMembersByName",
      "outputs": [
        {
          "internalType": "address[]",
          "name": "",
          "type": "address[]"
        }
      ],
      "stateMutability": "view",
      "type": "function",
      "constant": true
    },
    {
      "inputs": [
        {
          "internalType": "string",
          "name": "_oldName",
          "type": "string"
        },
        {
          "internalType": "string",
          "name": "_newName",
          "type": "string"
        }
      ],
      "name": "updateGroupName",
      "outputs": [
        {
          "internalType": "bool",
          "name": "",
          "type": "bool"
        }
      ],
      "stateMutability": "nonpayable",
      "type": "function"
    },
    {
      "inputs": [
        {
          "internalType": "string",
          "name": "_groupName",
          "type": "string"
        }
      ],
      "name": "deleteGroupByName",
      "outputs": [],
      "stateMutability": "nonpayable",
      "type": "function"
    },
    {
      "inputs": [
        {
          "internalType": "string",
          "name": "_groupName",
          "type": "string"
        }
      ],
      "name": "joinGroup",
      "outputs": [],
      "stateMutability": "nonpayable",
      "type": "function"
    }
  ],
  "bytecode": "0x6080604052600160005534801561001557600080fd5b506114ad806100256000396000f3fe608060405234801561001057600080fd5b50600436106100575760003560e01c806308d097371461005c57806345794bdb1461008c57806375e2f29c146100bc578063c51f3a99146100d8578063dc2ddcae146100f4575b600080fd5b61007660048036038101906100719190610d4c565b610110565b6040516100839190611107565b60405180910390f35b6100a660048036038101906100a19190610d8d565b610221565b6040516100b39190611129565b60405180910390f35b6100d660048036038101906100d19190610d4c565b61044e565b005b6100f260048036038101906100ed9190610d4c565b61076c565b005b61010e60048036038101906101099190610d4c565b61098a565b005b6060600060038360405161012491906110f0565b9081526020016040518091039020541415610174576040517f08c379a000000000000000000000000000000000000000000000000000000000815260040161016b906111a4565b60405180910390fd5b600061017f83610b57565b90506001600082815260200190815260200160002080548060200260200160405190810160405280929190818152602001828054801561021457602002820191906000526020600020905b8160009054906101000a900473ffffffffffffffffffffffffffffffffffffffff1673ffffffffffffffffffffffffffffffffffffffff16815260200190600101908083116101ca575b5050505050915050919050565b60008060038460405161023491906110f0565b9081526020016040518091039020541415610284576040517f08c379a000000000000000000000000000000000000000000000000000000000815260040161027b906111e4565b60405180910390fd5b600060038360405161029691906110f0565b908152602001604051809103902054146102e5576040517f08c379a00000000000000000000000000000000000000000000000000000000081526004016102dc90611184565b60405180910390fd5b60006102f084610b57565b90503373ffffffffffffffffffffffffffffffffffffffff1660016000838152602001908152602001600020600081548110610355577f4e487b7100000000000000000000000000000000000000000000000000000000600052603260045260246000fd5b9060005260206000200160009054906101000a900473ffffffffffffffffffffffffffffffffffffffff1673ffffffffffffffffffffffffffffffffffffffff16146103d6576040517f08c379a00000000000000000000000000000000000000000000000000000000081526004016103cd90611164565b60405180910390fd5b6003846040516103e691906110f0565b9081526020016040518091039020600090558260026000838152602001908152602001600020908051906020019061041f929190610be0565b508060038460405161043191906110f0565b908152602001604051809103902081905550600191505092915050565b600060038260405161046091906110f0565b90815260200160405180910390205414156104b0576040517f08c379a00000000000000000000000000000000000000000000000000000000081526004016104a7906111a4565b60405180910390fd5b60006003826040516104c291906110f0565b908152602001604051809103902054905060006001600083815260200190815260200160002080548060200260200160405190810160405280929190818152602001828054801561056857602002820191906000526020600020905b8160009054906101000a900473ffffffffffffffffffffffffffffffffffffffff1673ffffffffffffffffffffffffffffffffffffffff168152602001906001019080831161051e575b505050505090503373ffffffffffffffffffffffffffffffffffffffff16600160008481526020019081526020016000206000815481106105d2577f4e487b7100000000000000000000000000000000000000000000000000000000600052603260045260246000fd5b9060005260206000200160009054906101000a900473ffffffffffffffffffffffffffffffffffffffff1673ffffffffffffffffffffffffffffffffffffffff1614610653576040517f08c379a000000000000000000000000000000000000000000000000000000000815260040161064a906111c4565b60405180910390fd5b60038360405161066391906110f0565b9081526020016040518091039020600090556001600083815260200190815260200160002060006106949190610c66565b6002600083815260200190815260200160002060006106b39190610c87565b60005b815181101561076657600460008383815181106106fc577f4e487b7100000000000000000000000000000000000000000000000000000000600052603260045260246000fd5b602002602001015173ffffffffffffffffffffffffffffffffffffffff1673ffffffffffffffffffffffffffffffffffffffff168152602001908152602001600020600084815260200190815260200160002060009055808061075e906113a1565b9150506106b6565b50505050565b600060038260405161077e91906110f0565b90815260200160405180910390205414156107ce576040517f08c379a00000000000000000000000000000000000000000000000000000000081526004016107c5906111a4565b60405180910390fd5b60006003826040516107e091906110f0565b90815260200160405180910390205490506000600460003373ffffffffffffffffffffffffffffffffffffffff1673ffffffffffffffffffffffffffffffffffffffff16815260200190815260200160002060008381526020019081526020016000205414610884576040517f08c379a000000000000000000000000000000000000000000000000000000000815260040161087b90611204565b60405180910390fd5b60016000828152602001908152602001600020339080600181540180825580915050600190039060005260206000200160009091909190916101000a81548173ffffffffffffffffffffffffffffffffffffffff021916908373ffffffffffffffffffffffffffffffffffffffff16021790555060016002811115610932577f4e487b7100000000000000000000000000000000000000000000000000000000600052602160045260246000fd5b600460003373ffffffffffffffffffffffffffffffffffffffff1673ffffffffffffffffffffffffffffffffffffffff1681526020019081526020016000206000838152602001908152602001600020819055505050565b600060038260405161099c91906110f0565b908152602001604051809103902054146109eb576040517f08c379a00000000000000000000000000000000000000000000000000000000081526004016109e290611144565b60405180910390fd5b6001600080548152602001908152602001600020339080600181540180825580915050600190039060005260206000200160009091909190916101000a81548173ffffffffffffffffffffffffffffffffffffffff021916908373ffffffffffffffffffffffffffffffffffffffff1602179055508060026000805481526020019081526020016000209080519060200190610a88929190610be0565b50600054600382604051610a9c91906110f0565b90815260200160405180910390208190555060006002811115610ae8577f4e487b7100000000000000000000000000000000000000000000000000000000600052602160045260246000fd5b600460003373ffffffffffffffffffffffffffffffffffffffff1673ffffffffffffffffffffffffffffffffffffffff16815260200190815260200160002060008054815260200190815260200160002081905550600080815480929190610b4f906113a1565b919050555050565b600080600383604051610b6a91906110f0565b9081526020016040518091039020541415610bba576040517f08c379a0000000000000000000000000000000000000000000000000000000008152600401610bb1906111a4565b60405180910390fd5b600382604051610bca91906110f0565b9081526020016040518091039020549050919050565b828054610bec9061136f565b90600052602060002090601f016020900481019282610c0e5760008555610c55565b82601f10610c2757805160ff1916838001178555610c55565b82800160010185558215610c55579182015b82811115610c54578251825591602001919060010190610c39565b5b509050610c629190610cc7565b5090565b5080546000825590600052602060002090810190610c849190610cc7565b50565b508054610c939061136f565b6000825580601f10610ca55750610cc4565b601f016020900490600052602060002090810190610cc39190610cc7565b5b50565b5b80821115610ce0576000816000905550600101610cc8565b5090565b6000610cf7610cf284611255565b611224565b905082815260208101848484011115610d0f57600080fd5b610d1a84828561132d565b509392505050565b600082601f830112610d3357600080fd5b8135610d43848260208601610ce4565b91505092915050565b600060208284031215610d5e57600080fd5b600082013567ffffffffffffffff811115610d7857600080fd5b610d8484828501610d22565b91505092915050565b60008060408385031215610da057600080fd5b600083013567ffffffffffffffff811115610dba57600080fd5b610dc685828601610d22565b925050602083013567ffffffffffffffff811115610de357600080fd5b610def85828601610d22565b9150509250929050565b6000610e058383610e11565b60208301905092915050565b610e1a816112e5565b82525050565b6000610e2b82611295565b610e3581856112b8565b9350610e4083611285565b8060005b83811015610e71578151610e588882610df9565b9750610e63836112ab565b925050600181019050610e44565b5085935050505092915050565b610e87816112f7565b82525050565b6000610e98826112a0565b610ea281856112da565b9350610eb281856020860161133c565b80840191505092915050565b6000610ecb6013836112c9565b91507f47726f757020616c7265616479206578697374000000000000000000000000006000830152602082019050919050565b6000610f0b602c836112c9565b91507f4f6e6c792067726f75702063726561746f722063616e206d6f6469667920746860008301527f652067726f7570206e616d6500000000000000000000000000000000000000006020830152604082019050919050565b6000610f716022836112c9565b91507f47726f7570206e616d6520796f752077616e7420616c7265616479206578697360008301527f74730000000000000000000000000000000000000000000000000000000000006020830152604082019050919050565b6000610fd76013836112c9565b91507f446f65736e27742065786973742067726f7570000000000000000000000000006000830152602082019050919050565b6000611017602c836112c9565b91507f4f6e6c792067726f75702063726561746f722063616e2064656c65746520746860008301527f652067726f7570206e616d6500000000000000000000000000000000000000006020830152604082019050919050565b600061107d6013836112c9565b91507f4e6f7420666f756e64207468652067726f7570000000000000000000000000006000830152602082019050919050565b60006110bd6018836112c9565b91507f416c7265616479206a6f696e6564207468652067726f757000000000000000006000830152602082019050919050565b60006110fc8284610e8d565b915081905092915050565b600060208201905081810360008301526111218184610e20565b905092915050565b600060208201905061113e6000830184610e7e565b92915050565b6000602082019050818103600083015261115d81610ebe565b9050919050565b6000602082019050818103600083015261117d81610efe565b9050919050565b6000602082019050818103600083015261119d81610f64565b9050919050565b600060208201905081810360008301526111bd81610fca565b9050919050565b600060208201905081810360008301526111dd8161100a565b9050919050565b600060208201905081810360008301526111fd81611070565b9050919050565b6000602082019050818103600083015261121d816110b0565b9050919050565b6000604051905081810181811067ffffffffffffffff8211171561124b5761124a611448565b5b8060405250919050565b600067ffffffffffffffff8211156112705761126f611448565b5b601f19601f8301169050602081019050919050565b6000819050602082019050919050565b600081519050919050565b600081519050919050565b6000602082019050919050565b600082825260208201905092915050565b600082825260208201905092915050565b600081905092915050565b60006112f082611303565b9050919050565b60008115159050919050565b600073ffffffffffffffffffffffffffffffffffffffff82169050919050565b6000819050919050565b82818337600083830152505050565b60005b8381101561135a57808201518184015260208101905061133f565b83811115611369576000848401525b50505050565b6000600282049050600182168061138757607f821691505b6020821081141561139b5761139a611419565b5b50919050565b60006113ac82611323565b91507fffffffffffffffffffffffffffffffffffffffffffffffffffffffffffffffff8214156113df576113de6113ea565b5b600182019050919050565b7f4e487b7100000000000000000000000000000000000000000000000000000000600052601160045260246000fd5b7f4e487b7100000000000000000000000000000000000000000000000000000000600052602260045260246000fd5b7f4e487b7100000000000000000000000000000000000000000000000000000000600052604160045260246000fdfea26469706673582212205ee7a42706f057d2f861b24f9f2f625b63811491b867be47998c1bffddf25b5764736f6c63430008000033",
  "immutableReferences": {},
  "source": "// SPDX-License-Identifier: MIT\npragma solidity ^0.8.0;\n\ncontract Group {\n    enum MemberStatus { Supervisor, Member, NotMember}\n\n    uint private groupIndex = 1;\n\n    mapping(uint => address[]) private groups;                      // (group ID, members)\n    mapping(uint => string) private groupNames;                     // (group ID, group name)\n    mapping(string => uint) private nameToGroupID;                  // (group name, group ID)\n    mapping(address => mapping(uint => uint)) private joinedStatus; // (member, (group ID, member status))\n\n    // Anyone can create a group.\n    function createGroup (string memory _name) public {\n        require(nameToGroupID[_name] == 0, \"Group already exist\");\n\n        groups[groupIndex].push(msg.sender);\n\n        groupNames[groupIndex] = _name;\n\n        nameToGroupID[_name] = groupIndex;\n        joinedStatus[msg.sender][groupIndex] = uint(MemberStatus.Supervisor);\n        groupIndex++;\n    }\n\n    /* \n        Read Group Information \n    */\n    function readGroupMembersByName (string memory _groupName) public view returns (address[] memory) {\n        require(nameToGroupID[_groupName] != 0, \"Doesn't exist group\");\n        uint _groupID = readGroupIdByName(_groupName);\n        return groups[_groupID];\n    }\n    \n    function readGroupIdByName (string memory _groupName) private view returns (uint) {\n        require(nameToGroupID[_groupName] != 0, \"Doesn't exist group\");\n        return nameToGroupID[_groupName];\n    }\n\n    // Update Group Name\n    function updateGroupName (string memory _oldName, string memory _newName) public returns (bool) {\n        // To check if the group of _oldName or _newName exists\n        require(nameToGroupID[_oldName] != 0, \"Not found the group\");\n        require(nameToGroupID[_newName] == 0, \"Group name you want already exists\");\n\n        // To check if the msg.sender is creator for the group\n        uint _groupID = readGroupIdByName(_oldName);\n        require(groups[_groupID][0] == msg.sender, \"Only group creator can modify the group name\");\n\n        delete nameToGroupID[_oldName];\n\n        groupNames[_groupID] = _newName;\n        nameToGroupID[_newName] = _groupID;\n\n        return true;\n    }\n\n    \n    //  Delete Group Information \n    function deleteGroupByName (string memory _groupName) public {\n        require(nameToGroupID[_groupName] != 0, \"Doesn't exist group\");\n        \n        uint _groupID = nameToGroupID[_groupName];\n        address[] memory _groupMembers = groups[_groupID];\n\n        require(groups[_groupID][0] == msg.sender, \"Only group creator can delete the group name\");\n\n        delete nameToGroupID[_groupName];\n        delete groups[_groupID];\n        delete groupNames[_groupID];\n\n        for (uint i = 0; i < _groupMembers.length; i++) {\n            delete joinedStatus[_groupMembers[i]][_groupID];\n        }\n    }\n\n    // Join the group\n    function joinGroup (string memory _groupName) public {\n        require(nameToGroupID[_groupName] != 0, \"Doesn't exist group\");\n\n        // If msg.sender already joined the group, it will be rejeted.\n        uint _groupID = nameToGroupID[_groupName];\n        require(joinedStatus[msg.sender][_groupID] == 0, \"Already joined the group\");\n\n        // Join\n        groups[_groupID].push(msg.sender);\n        joinedStatus[msg.sender][_groupID] = uint(MemberStatus.Member);\n    }\n\n    // List up the member in the group\n    // function listUpMembers (string memory _groupName) public view returns (address[] memory) {\n    //     uint memberCount;\n    //     uint _groupID = nameToGroupID[_groupName];\n    //     address[] memory members = groups[_groupID];\n    //     for (uint i = 0; i < members.length; i++) {\n    //         // If he is joining in the _groupID, the number of the group member is counted\n    //         if (joinedStatus[members[i]][_groupID] != uint(MemberStatus.NotMember)) {\n    //             memberCount++;\n    //         }\n    //     }\n\n    //     uint index;\n    //     address[] memory realMembers = new address[](memberCount);\n    //     for (uint i = 0; i < members.length; i++) {\n    //         if (joinedStatus[members[i]][_groupID] != uint(MemberStatus.NotMember)) {\n    //             realMembers[index++] = members[i];\n    //         }\n    //     }\n\n    //     return realMembers;\n    // }\n}\n",
  "sourcePath": "/Users/bangseokmin/Desktop/GyeDev/Gye_Project/contracts/Group.sol",
  "compiler": {
    "name": "solc",
    "version": "0.8.0+commit.c7dfd78e.Emscripten.clang"
  },
  "schemaVersion": "3.4.16",
  "updatedAt": "2024-11-07T11:57:37.320Z",
  "networkType": "ethereum",
  "devdoc": {
    "kind": "dev",
    "methods": {},
    "version": 1
  },
  "userdoc": {
    "kind": "user",
    "methods": {},
    "version": 1
  }
}